:020000040800F2
:1000000000000220B5150008091400080B140008B0
:100010000D1400080F14000811140008000000005F
:1000200000000000000000000000000013140008A1
:100030001514000800000000171400081914000827
:100040000516000805160008051600080516000824
:100050000516000805160008051600080516000814
:100060000516000805160008051600080516000804
:1000700005160008051600080516000805160008F4
:1000800005160008051600080516000805160008E4
:1000900005160008051600080516000805160008D4
:1000A00005160008051600080516000805160008C4
:1000B00005160008051600080516000805160008B4
:1000C00005160008051600080516000805160008A4
:1000D000051600082114000805160008051600087A
:1000E0000516000805160008051600080516000884
:1000F0000516000805160008051600080516000874
:100100000516000805160008051600080516000863
:100110000516000805160008051600080516000853
:100120003114000805160008051600080516000819
:100130000516000805160008051600080516000833
:100140000516000805160008051600080516000823
:100150000516000805160008051600080516000813
:100160000516000805160008051600080516000803
:100170000516000805160008051600080000000016
:08018000051600080516000831
:1001C00010B5054C237833B9044B13B10448AFF391
:1001D00000800123237010BDC00900200000000032
:1001E0006090000808B5034B1BB103490348AFF307
:1001F000008008BD00000000C409002060900008D5
:1002000053B94AB9002908BF00281CBF4FF0FF317D
:100210004FF0FF3000F074B9ADF1080C6DE904CE79
:1002200000F006F8DDF804E0DDE9022304B07047D1
:100230002DE9F047089E0D4604468846002B4DD117
:100240008A42944668D9B2FA82F252B101FA02F3B4
:10025000C2F1200120FA01F10CFA02FC41EA030884
:1002600094404FEA1C45210CB8FBF5FE1FFA8CF7B1
:1002700005FB1E8341EA03430EFB07F199420BD9AC
:100280001CEB03030EF1FF3080F01E81994240F217
:100290001B81AEF1020E63445B1AA4B2B3FBF5F00E
:1002A00005FB103344EA034400FB07F7A7420AD9D1
:1002B0001CEB040400F1FF3380F00881A74240F2F8
:1002C000058164440238E41B40EA0E4000211EB15F
:1002D000D4400023C6E90043BDE8F0878B4208D92B
:1002E000002E00F0EE800021C6E900050846BDE8BA
:1002F000F087B3FA83F100294AD1AB4202D382429C
:1003000000F2F980841A65EB030301209846002E61
:10031000E2D0C6E90048DFE702B9FFDEB2FA82F2B6
:10032000002A40F09180A1EB0C054FEA1C471FFA10
:100330008CFE0121B5FBF7F307FB1350250C45EAB2
:1003400000450EFB03F0A84208D91CEB050503F19C
:10035000FF3802D2A84200F2CB8043462D1AA4B245
:10036000B5FBF7F007FB105544EA05440EFB00FE11
:10037000A64508D91CEB040400F1FF3502D2A645BE
:1003800000F2BB802846A4EB0E0440EA03409EE73F
:10039000C1F120078B4022FA07FC4CEA030C20FA3B
:1003A00007F405FA01F31C43FD404FEA1C4900FA2B
:1003B00001F3B5FBF9F8200C1FFA8CFE09FB185568
:1003C00040EA054508FB0EF0A84202FA01F20BD9FB
:1003D0001CEB050508F1FF3A80F08880A84240F246
:1003E0008580A8F1020865442D1AA4B2B5FBF9F086
:1003F00009FB105544EA054500FB0EFEAE4508D941
:100400001CEB050500F1FF346CD2AE456AD9023809
:10041000654440EA0840A0FB0294A5EB0E05A54206
:10042000C846A64656D353D05EB1B3EB080265EB7F
:100430000E0505FA07F722FA01F3CD401F43C6E97E
:1004400000750021BDE8F087C2F1200320FA03F116
:100450000CFA02FC25FA03F395400D434FEA1C47C2
:100460001FFA8CFEB3FBF7F107FB11302B0C43EAAC
:10047000004301FB0EF0984204FA02F408D91CEB89
:10048000030301F1FF382FD298422DD9023963447A
:100490001B1AADB2B3FBF7F007FB103345EA034577
:1004A00000FB0EF3AB4208D91CEB050500F1FF3849
:1004B00016D2AB4214D902386544ED1A40EA014124
:1004C00038E73146304607E78646E5E61846FAE65D
:1004D0004B45A9D2B9EB020864EB0C0E0138A3E737
:1004E0004046EAE7204694E74146D1E7D0467BE71D
:1004F000023B654432E7084609E76444023842E7B4
:10050000704700BF00000000000000000000000075
:1005100001F0FF01102A2BDB10F0070F08D010F8B4
:10052000013B013A8B422DD010F0070F42B3F6D1B8
:10053000F0B441EA012141EA014122F007047FF0D1
:1005400000070023F0E80256083C85EA010586EA28
:10055000010685FA47F5A3FA87F586FA47F6A5FA64
:1005600087F68EB9EED1F0BC01F0FF0102F0070270
:1005700032B110F8013B013A83EA010313B1F8D11B
:100580000020704701387047002D06BF35460338FC
:10059000073815F0010F07D1013015F4807F02BF35
:1005A000013015F4C03F0130F0BC0138704700BF86
:1005B000844641EA000313F003036DD1403A41D36E
:1005C00051F8043B40F8043B51F8043B40F8043B2D
:1005D00051F8043B40F8043B51F8043B40F8043B1D
:1005E00051F8043B40F8043B51F8043B40F8043B0D
:1005F00051F8043B40F8043B51F8043B40F8043BFD
:1006000051F8043B40F8043B51F8043B40F8043BEC
:1006100051F8043B40F8043B51F8043B40F8043BDC
:1006200051F8043B40F8043B51F8043B40F8043BCC
:1006300051F8043B40F8043B51F8043B40F8043BBC
:10064000403ABDD2303211D351F8043B40F8043B5C
:1006500051F8043B40F8043B51F8043B40F8043B9C
:1006600051F8043B40F8043B103AEDD20C3205D36C
:1006700051F8043B40F8043B043AF9D2043208D064
:10068000D2071CBF11F8013B00F8013B01D30B88D6
:1006900003806046704700BF082A13D38B078DD0B4
:1006A00010F003038AD0C3F10403D21ADB071CBF86
:1006B00011F8013B00F8013B80D331F8023B20F8F0
:1006C000023B7BE7043AD9D3013A11F8013B00F829
:1006D000013BF9D20B7803704B7843708B788370B1
:1006E00060467047000000000000000000000000AD
:1006F00000000000000000000000000000000000FA
:1007000090F800F06DE9024520F007016FF0000C51
:1007100010F0070491F820F040F049804FF00004F9
:100720006FF00700D1E9002391F840F000F10800D4
:1007300082FA4CF2A4FA8CF283FA4CF3A2FA8CF30C
:100740004BBBD1E9022382FA4CF200F10800A4FA73
:100750008CF283FA4CF3A2FA8CF3E3B9D1E90423C7
:1007600082FA4CF200F10800A4FA8CF283FA4CF3FE
:10077000A2FA8CF37BB9D1E9062301F1200182FAB8
:100780004CF200F10800A4FA8CF283FA4CF3A2FABE
:100790008CF3002BC6D0002A04BF04301A4612BACC
:1007A000B2FA82F2FDE8024500EBD2007047D1E9CF
:1007B000002304F00305C4F100004FEAC50514F05E
:1007C000040F91F840F00CFA05F562EA05021CBF2F
:1007D00063EA050362464FF00004A9E781F0004197
:1007E00002E000BF83F0004330B54FEA41044FEA16
:1007F000430594EA050F08BF90EA020F1FBF54EAB1
:10080000000C55EA020C7FEA645C7FEA655C00F04C
:10081000E2804FEA5454D4EB5555B8BF6D420CDD1D
:100820002C4480EA020281EA030382EA000083EAA0
:10083000010180EA020281EA0303362D88BF30BD40
:1008400011F0004F4FEA01314FF4801C4CEA113196
:1008500002D0404261EB410113F0004F4FEA0333F5
:100860004CEA133302D0524263EB430394EA050F80
:1008700000F0A780A4F10104D5F1200E0DDB02FAEF
:100880000EFC22FA05F2801841F1000103FA0EF283
:10089000801843FA05F359410EE0A5F120050EF149
:1008A000200E012A03FA0EFC28BF4CF0020C43FA7A
:1008B00005F3C01851EBE37101F0004507D54FF087
:1008C000000EDCF1000C7EEB00006EEB0101B1F5D7
:1008D000801F1BD3B1F5001F0CD349085FEA30001D
:1008E0004FEA3C0C04F101044FEA445212F5800F28
:1008F00080F09A80BCF1004F08BF5FEA500C50F1C5
:10090000000041EB045141EA050130BD5FEA4C0CA7
:10091000404141EB0101013C28BFB1F5801FE9D204
:1009200091F0000F04BF01460020B1FA81F308BF27
:100930002033A3F10B03B3F120020CDA0C3208DDF3
:1009400002F1140CC2F10C0201FA0CF021FA02F1CE
:100950000CE002F11402D8BFC2F1200C01FA02F13E
:1009600020FA0CFCDCBF41EA0C019040E41AA2BF63
:1009700001EB0451294330BD6FEA04041F3C1CDA2B
:100980000C340EDC04F11404C4F1200220FA04F04B
:1009900001FA02F340EA030021FA04F345EA0301F5
:1009A00030BDC4F10C04C4F1200220FA02F001FAB7
:1009B00004F340EA0300294630BD21FA04F0294639
:1009C00030BD94F0000F83F4801306BF81F48011D2
:1009D0000134013D4EE77FEA645C18BF7FEA655C45
:1009E00029D094EA050F08BF90EA020F05D054EA17
:1009F000000C04BF1946104630BD91EA030F1EBF1C
:100A00000021002030BD5FEA545C05D1400049411F
:100A100028BF41F0004130BD14F580043CBF01F512
:100A2000801130BD01F0004545F0FE4141F47001F8
:100A30004FF0000030BD7FEA645C1ABF19461046D3
:100A40007FEA655C1CBF0B46024650EA013406BFD4
:100A500052EA033591EA030F41F4002130BD00BF93
:100A600090F0000F04BF0021704730B54FF4806450
:100A700004F132044FF000054FF0000150E700BFD1
:100A800090F0000F04BF0021704730B54FF4806430
:100A900004F1320410F0004548BF40424FF000011D
:100AA0003EE700BF42004FEAE2014FEA31014FEA60
:100AB00002701FBF12F07F4393F07F4F81F06051AF
:100AC000704732F07F4208BF704793F07F4F04BFFA
:100AD00041F40021704730B54FF4607401F00045D7
:100AE00021F000411CE700BF50EA010208BF704737
:100AF00030B54FF000050AE050EA010208BF704728
:100B000030B511F0004502D5404261EB41014FF490
:100B1000806404F132045FEA915C3FF4D8AE4FF098
:100B200003025FEADC0C18BF03325FEADC0C18BF7B
:100B3000033202EBDC02C2F1200300FA03FC20FACC
:100B400002F001FA03FE40EA0E0021FA02F1144419
:100B5000BDE600BF70B54FF0FF0C4CF4E06C1CEA32
:100B600011541DBF1CEA135594EA0C0F95EA0C0FA3
:100B700000F0DEF82C4481EA030621EA4C5123EA16
:100B80004C5350EA013518BF52EA033541F4801145
:100B900043F4801338D0A0FB02CE4FF00005E1FBF8
:100BA00002E506F00042E0FB03E54FF00006E1FB42
:100BB00003569CF0000F18BF4EF0010EA4F1FF0485
:100BC000B6F5007F64F5407404D25FEA4E0E6D41C5
:100BD00046EB060642EAC62141EA55514FEAC520D6
:100BE00040EA5E504FEACE2EB4F1FD0C88BFBCF552
:100BF000E06F1ED8BEF1004F08BF5FEA500E50F103
:100C0000000041EB045170BD06F0004646EA0101C8
:100C100040EA020081EA0301B4EB5C04C2BFD4EBFA
:100C20000C0541EA045170BD41F480114FF0000EF3
:100C3000013C00F3AB8014F1360FDEBF002001F061
:100C4000004170BDC4F10004203C35DA0C341BDCDB
:100C500004F11404C4F1200500FA05F320FA04F0AD
:100C600001FA05F240EA020001F0004221F00041E1
:100C700010EBD37021FA04F642EB06015EEA430E54
:100C800008BF20EAD37070BDC4F10C04C4F1200584
:100C900000FA04F320FA05F001FA04F240EA020037
:100CA00001F0004110EBD37041F100015EEA430E08
:100CB00008BF20EAD37070BDC4F1200500FA05F228
:100CC0004EEA020E20FA04F301FA05F243EA0203A7
:100CD00021FA04F001F0004121FA04F220EA0200B6
:100CE00000EBD3705EEA430E08BF20EAD37070BDFC
:100CF00094F0000F0FD101F00046400041EB0101DC
:100D000011F4801F08BF013CF7D041EA060195F0BD
:100D1000000F18BF704703F00046520043EB030377
:100D200013F4801F08BF013DF7D043EA0603704764
:100D300094EA0C0F0CEA135518BF95EA0C0F0CD06F
:100D400050EA410618BF52EA4306D1D181EA0301B5
:100D500001F000414FF0000070BD50EA410606BFAF
:100D60001046194652EA430619D094EA0C0F02D1F4
:100D700050EA013613D195EA0C0F05D152EA033639
:100D80001CBF104619460AD181EA030101F0004157
:100D900041F0FE4141F470014FF0000070BD41F0A0
:100DA000FE4141F4780170BD70B54FF0FF0C4CF47A
:100DB000E06C1CEA11541DBF1CEA135594EA0C0F99
:100DC00095EA0C0F00F0A7F8A4EB050481EA030EE6
:100DD00052EA03354FEA013100F088804FEA0333CD
:100DE0004FF0805545EA131343EA12634FEA02229B
:100DF00045EA111545EA10654FEA00260EF000415C
:100E00009D4208BF964244F1FD0404F5407402D2AD
:100E10005B084FEA3202B61A65EB03055B084FEA3E
:100E200032024FF480104FF4002CB6EB020E75EB3B
:100E3000030E22BFB61A754640EA0C005B084FEA63
:100E40003202B6EB020E75EB030E22BFB61A7546E0
:100E500040EA5C005B084FEA3202B6EB020E75EB2B
:100E6000030E22BFB61A754640EA9C005B084FEAA3
:100E70003202B6EB020E75EB030E22BFB61A7546B0
:100E800040EADC0055EA060E18D04FEA051545EA9F
:100E900016754FEA06164FEAC30343EA52734FEA48
:100EA000C2025FEA1C1CC0D111F4801F0BD141EAC1
:100EB00000014FF000004FF0004CB6E711F4801F26
:100EC00004BF01430020B4F1FD0C88BFBCF5E06F06
:100ED0003FF6AFAEB5EB030C04BFB6EB020C5FEA16
:100EE000500C50F1000041EB045170BD0EF0004E6B
:100EF0004EEA113114EB5C04C2BFD4EB0C0541EA9D
:100F0000045170BD41F480114FF0000E013C90E699
:100F100045EA060E8DE60CEA135594EA0C0F08BF5D
:100F200095EA0C0F3FF43BAF94EA0C0F0AD150EA5C
:100F300001347FF434AF95EA0C0F7FF425AF1046EF
:100F400019462CE795EA0C0F06D152EA03353FF417
:100F5000FDAE1046194622E750EA410618BF52EA94
:100F600043067FF4C5AE50EA41047FF40DAF52EA68
:100F700043057FF4EBAE12E74FF0FF3C06E000BF05
:100F80004FF0010C02E000BF4FF0010C4DF804CD12
:100F90004FEA410C7FEA6C5C4FEA430C18BF7FEAD2
:100FA0006C5C1BD001B050EA410C0CBF52EA430C00
:100FB00091EA030F02BF90EA020F0020704710F180
:100FC000000F91EA030F58BF994208BF90422CBF0F
:100FD000D8176FEAE37040F0010070474FEA410C08
:100FE0007FEA6C5C02D150EA013C07D14FEA430C26
:100FF0007FEA6C5CD6D152EA033CD3D05DF8040B97
:10100000704700BF8446104662468C4619466346C8
:1010100000E000BF01B5FFF7B7FF002848BF10F19F
:10102000000F01BD4DF808EDFFF7F4FF0CBF0120E4
:1010300000205DF808FB00BF4DF808EDFFF7EAFF60
:1010400034BF012000205DF808FB00BF4DF808ED1B
:10105000FFF7E0FF94BF012000205DF808FB00BF10
:101060004DF808EDFFF7CEFF94BF012000205DF89A
:1010700008FB00BF4DF808EDFFF7C4FF34BF0120A7
:1010800000205DF808FB00BF4FEA410C7FEA6C5C72
:1010900002D150EA013C0AD14FEA430C7FEA6C5C72
:1010A00002D152EA033C02D14FF0000070474FF0EA
:1010B000010070474FEA410212F5001215D211D516
:1010C0006FF47873B3EB625212D94FEAC12343F045
:1010D000004343EA505311F0004F23FA02F018BFC7
:1010E000404270474FF00000704750EA013005D190
:1010F00011F0004008BF6FF0004070474FF0000053
:10110000704700BF00B585B00023009301930293A0
:1011100003931548154A02604FF4803242608360A1
:1011200001220261027680F82030C3621049816298
:10113000C360C26180F83030426100F065FB60B985
:101140000B2300930123019302936946064800F0A4
:10115000A1FC28B905B05DF804FB00F0A1F8EFE7A9
:1011600000F09EF8F6E700BFDC09002000200140F7
:101170000100000F30B589B0002303930493059359
:1011800006930793026803F1804303F590339A4274
:1011900001D009B030BD04460025019503F58C331C
:1011A0005A6C42F480725A645A6C02F48072019252
:1011B000019A02951A6B42F004021A631B6B03F04A
:1011C00004030293029B022303930323049303A9C2
:1011D000104800F0FBFF1048104B0360456085602D
:1011E000C5604FF4806303614FF4006343614FF4C3
:1011F000005383614FF48073C3610562456200F060
:10120000FFFD18B9044BA3639C63C2E700F048F8E4
:10121000F8E700BF00080240240A002010640240E2
:1012200000B583B000210191094B1A6B42F4800292
:101230001A631B6B03F480030193019B0A46382059
:1012400000F006FD382000F03BFD03B05DF804FB24
:101250000038024084B000220192104B196B41F01B
:1012600080011963196B01F08001019101990292CB
:10127000196B41F004011963196B01F0040102912B
:10128000029903921A6B42F001021A631B6B03F07E
:1012900001030393039B04B0704700BF0038024072
:1012A00072B6FEE700B595B03022002108A801F023
:1012B00077FF002303930493059306930793019309
:1012C000204A116C41F080511164126C02F080527E
:1012D0000192019A02931C4B1A6842F480421A60F0
:1012E0001B6803F480430293029B012308934FF48D
:1012F0008033099302220E924FF480030F9304234C
:101300001093A82111911292139308A801F050F89C
:1013100098B90F23039302230493002305934FF4FA
:10132000A05306934FF480530793052103A801F0BF
:10133000A5FA20B915B05DF804FBFFF7B1FFFFF780
:10134000AFFF00BF003802400070004010B500F051
:1013500081F9FFF7A7FFFFF77DFFFFF761FFFFF7B9
:10136000D1FE00F0CDF81CE0124931F813100A4408
:101370000133272BF8DD104BA3FB02230F4C5B0935
:101380000F4A0521204601F05DFFFF23042221467C
:101390000C4801F0A4FC0C4B00221A60642000F001
:1013A00085F928220349094800F05AFA00231A4611
:1013B000DFE700BF840A0020CDCCCCCCD40A0020CB
:1013C00078900008E80A002000000020DC090020D6
:1013D00082B0002100910B4B5A6C42F480425A6457
:1013E0005A6C02F480420092009A01911A6C42F009
:1013F00080521A641B6C03F080530193019B02B06E
:10140000704700BF00380240FEE7FEE7FEE7FEE758
:10141000FEE770477047704708B500F035F908BD22
:1014200008B5024801F04EFD08BD00BFE80A0020E3
:1014300008B5024800F0DCFD08BD00BF240A00200A
:101440000120704708B501F081FE162303604FF0BC
:10145000FF3008BD08B54FF0FF31FFF7F3FFFEE79F
:1014600070B50C461646002506E0AFF30080214615
:1014700001F8010B01350C46B542F6DB304670BD74
:1014800070B50C461646002504E014F8010BAFF3C6
:1014900000800135B542F8DB304670BD4FF0FF30BB
:1014A00070474FF400534B60002070470120704795
:1014B0000020704710B503460C4A0D490D480068DE
:1014C00040B10C4800680344521A934206D8094AB6
:1014D000136010BD0748084C0460F2E701F036FEC7
:1014E0000C2303604FF0FF30F3E700BF0000022041
:1014F00000040000E40A0020800B00207047000078
:1015000008B50A480A4B03604FF4E13343600023F7
:101510008360C36003610C2242618361C36101F097
:10152000AEFB00B908BDFFF7BBFEFBE7E80A0020F1
:101530000010014010B588B0002303930493059375
:1015400006930793026803F1804303F588339A42B8
:1015500001D008B010BD0024019403F594335A6CF7
:1015600042F010025A645A6C02F010020192019A81
:1015700002941A6B42F001021A631B6B03F0010321
:101580000293029B4FF4C06303930223049303234B
:1015900006930723079303A9054800F017FE224688
:1015A0002146252000F054FB252000F089FBD0E7E0
:1015B00000000240DFF834D0FFF7A0FF0C480D49CF
:1015C0000D4A002302E0D458C4500433C4188C429E
:1015D000F9D30A4A0A4C002301E013600432A24204
:1015E000FBD301F0B9FDFFF7B1FE70470000022008
:1015F00000000020C0090020AC940008C0090020B1
:101600007C0B0020FEE7000010B504460E4B187856
:101610004FF47A73B3FBF0F30C4A1068B0FBF3F0AD
:1016200000F05CFB68B90F2C01D901200AE0002210
:1016300021464FF0FF3000F00BFB054B1C600020F3
:1016400000E0012010BD00BF0800002004000020C1
:101650000C00002008B50B4B1A6842F400721A60A7
:101660001A6842F480621A601A6842F480721A6042
:10167000032000F0DBFA0F20FFF7C6FFFFF7A8FEFC
:10168000002008BD003C0240034A1168034B1B7850
:101690000B441360704700BF300B0020080000208F
:1016A000014B1868704700BF300B002038B5044666
:1016B000FFF7F6FF0546B4F1FF3F02D0044B1B785D
:1016C0001C44FFF7EDFF401BA042FAD338BD00BF1A
:1016D000080000204A4B5A6822F440325A605A6887
:1016E00041680A435A600268536823F48073536068
:1016F00002685368016943EA012353600268536832
:1017000023F0407353600268536881680B43536051
:101710000268936823F40063936002689368C16869
:101720000B439360826A374B9A4257D002689368A2
:1017300023F07063936002689368816A0B4393603F
:101740000268936823F04053936002689368C16A0B
:101750000B4393600268936823F00203936002686E
:101760009368017E43EA4103936090F82030002B98
:101770003FD00268536843F40063536002685368C3
:1017800023F46043536001684B68426A013A43EABC
:1017900042334B600268D36A23F47003D36201685A
:1017A000CB6AC269013A43EA0253CB62026893688A
:1017B00023F4007393600268936890F8301043EA52
:1017C000412393600268936823F480639360026806
:1017D0009368416943EA8123936070470268936884
:1017E00023F0706393600268936823F04053936022
:1017F000B0E70268536823F400635360CAE700BF90
:10180000002301400100000F38B310B50446036CFB
:1018100043B1236C13F0100F0BD00120002384F888
:101820003C3010BDFFF7A6FC0023636484F83C3015
:10183000EFE7236C23F4885323F0020343F0020301
:1018400023642046FFF746FF00206064236C23F0EA
:10185000030343F001032364E0E701207047000025
:1018600010B582B013460022019290F83C20012A64
:1018700000F0AE800446012280F83C2002689068A7
:1018800010F0010F13D1906840F001009060534AAE
:101890001068534AA2FB0020800C00EB400001902E
:1018A00002E001980138019001980028F9D12268DE
:1018B000906810F4807F03D0906820F4807090606E
:1018C0002268906810F0010F77D0206C20F4E0605F
:1018D00020F0010040F480702064526812F4806FA0
:1018E00005D0226C22F4405242F480522264226CD1
:1018F00012F4805F36D0626C22F00602626400222D
:1019000084F83C20A26B3748D063A26B3648106441
:10191000A26B3648D06422686FF022001060206805
:10192000426842F0806242602068826842F48072BD
:10193000826020680A4600F14C01A06B00F0C6FAF4
:101940002B4B5B6813F01F0F27D12368294A934262
:1019500011D002F58072934207D0274A934214D0E7
:10196000002033E000226264C9E702F50072526889
:1019700012F01F0FF1D19A6812F0405F2AD19A68D5
:1019800042F080429A60002020E002F580725268A6
:1019900012F0100FEFD0002018E02368154A934290
:1019A00001D0002012E09A6812F0405F14D19A68CA
:1019B00042F080429A60002008E0236C43F010035C
:1019C0002364636C43F001036364002002B010BD24
:1019D0000220FBE70020F9E70020F7E704000020E1
:1019E00083DE1B43231A0008011A00080D1A0008A1
:1019F0000023014000200140002201407047704751
:101A000008B5806BFFF7FBFF08BD704708B5806B1A
:101A100040230364436C43F004034364FFF7F5FF82
:101A200008BD08B50346806B026C12F0500F25D13B
:101A3000036C43F40073036403689A6812F0405F18
:101A400019D1027EBAB9DA6A12F4700F03D09A681B
:101A500012F4806F0FD15A6822F020025A60036C92
:101A600023F480730364036C13F4805F03D1036C6D
:101A700043F001030364FFF7C1FF08BD026C12F0DD
:101A8000100F04D1826BD26C18469047F5E7FFF730
:101A9000BCFFF2E730B482B00023019390F83C30F1
:101AA000012B00F0BB80012380F83C300B68092B30
:101AB00041D90468E2689BB203EB43031E3B4FF03D
:101AC000070C0CFA03F322EA0303E3600468E268FC
:101AD0000B8803EB43031E3B8D6805FA03F31343A6
:101AE000E3604B68062B3DD80468626B03EB83030D
:101AF000053B4FF01F0C0CFA03F322EA0303636368
:101B00000468626B4B6803EB8303053BB1F800C0CC
:101B10000CFA03F3134363630268414B9A4251D0BA
:101B200002683F4B9A4256D0002380F83C3018465A
:101B300002B030BC7047046822699BB203EB4303D8
:101B40004FF0070C0CFA03F322EA03032361046845
:101B500022690B8803EB43038D6805FA03F31343F3
:101B60002361BEE70C2B16D805682A6B03EB8303B1
:101B7000233B1F2404FA03F322EA03032B630568C3
:101B80002A6B4B6803EB8303233B0C8804FA03F3B3
:101B900013432B63C0E70568EA6A03EB8303413B09
:101BA0001F2404FA03F322EA0303EB620568EA6ADE
:101BB0004B6803EB8303413B0C8804FA03F31343A4
:101BC000EB62A9E70B68122BAAD1164A536843F4BB
:101BD00080035360A4E70B68103B012BA4D8114A83
:101BE000536843F4000353600B68102B9CD10E4BD9
:101BF0001B6802F1467202F52E3202F28332A2FB1A
:101C000003239B0C03EB83035B00019302E0019B26
:101C1000013B0193019B002BF9D185E7022087E767
:101C2000002001400023014004000020074AD3683F
:101C300023F4E0631B041B0C000200F4E060034388
:101C400043F0BF6343F40033D360704700ED00E01E
:101C500000B5194BDB68C3F30223C3F1070CBCF1D9
:101C6000040F28BF4FF0040C03F1040EBEF1060F61
:101C700018D9033B4FF0FF3E0EFA0CFC21EA0C0191
:101C800099400EFA03F322EA0303194300280BDB01
:101C90000901C9B200F1604000F5614080F800130D
:101CA0005DF804FB0023E5E700F00F000901C9B26D
:101CB000024B1954F4E700BF00ED00E014ED00E022
:101CC000002807DB00F01F02400901239340024A6D
:101CD00042F82030704700BF00E100E00138B0F169
:101CE000807F0BD24FF0E0235861054AF02182F843
:101CF00023100020986107221A6170470120704765
:101D000000ED00E030B405682C6824F480242C60D9
:101D1000046863608368402B05D00368996003689A
:101D2000DA6030BC704703689A600368D960F8E7EE
:101D300010B40368D9B210390B4AA2FB0142120950
:101D40000A4CA25CC2655F2908D923F47F7323F093
:101D5000030304338365806D10BC704723F47F73E5
:101D600023F003038365F6E7ABAAAAAA94900008C0
:101D7000836A826992B9012B0AD0022B02D00BB17F
:101D800000207047C36A13F0807F28D1002070477D
:101D9000C36AB3F1C07F24D000207047B2F5005F62
:101DA00009D0022B25D9032B25D1C36A13F0807FDC
:101DB00023D100207047032B03D8DFE803F014047D
:101DC000140A00207047C36A13F0807F0DD10020F1
:101DD0007047C36AB3F1C07F09D00020704701206B
:101DE0007047012070470120704701207047012093
:101DF00070470120704700207047012070470000A5
:101E000070B50446FFF74CFC002C5BD0054602235E
:101E100084F83530002384F834302268136823F0C6
:101E20000103136023681A6812F0010F0AD0FFF74C
:101E300037FC431B052BF5D920236365032084F869
:101E4000350070BD1A68204810406168A2680A43D6
:101E5000E1680A4321690A4361690A43A1690A43A7
:101E6000E1690A43216A0A430243616A04291ED0D8
:101E70001A602668756925F00705636A1D43042BFF
:101E800007D1A36A1D43E36A1BB12046FFF770FF29
:101E900090B975612046FFF74BFFE26D3F239340F9
:101EA000836000206065012384F83530C9E7E16A6A
:101EB000206B01430A43DBE740236365012084F87C
:101EC0003500BEE70120BCE73F8010F038B504467E
:101ED000856D90F8340001282BD0012084F834005F
:101EE00094F83500C0B2012804D0002384F83430BF
:101EF000022038BD022084F83500002060652046AD
:101F0000FFF700FFE26D3F239340AB602268136848
:101F100043F016031360236C23B12268136843F067
:101F2000080313602268136843F001031360002064
:101F3000DFE70220DDE770B50446866DFFF7B0FBF2
:101F400094F83530DBB2022B06D080236365002382
:101F500084F83430012070BD05462268136823F0F0
:101F6000160313602268536923F080035361236CC6
:101F7000E3B12268136823F0080313602268136832
:101F800023F00103136023681B6813F0010F11D0C5
:101F9000FFF786FB431B052BF5D920236365032040
:101FA00084F83500002384F83430D4E7A36C002B88
:101FB000DFD1E3E7E26D3F239340B360012384F870
:101FC0003530002084F83400C5E790F83530DBB2B6
:101FD000022B03D08023436501207047052380F83E
:101FE00035300268136823F0010313600020704746
:101FF000F0B583B0044600230193724B1D68724B09
:10200000A3FB0535AD0A876D3E68C26D082393407A
:10201000334210D003681A6812F0040F0BD01A680C
:1020200022F004021A60C26D08239340BB60436D26
:1020300043F001034365E26D01239340334209D02D
:102040002268526912F0800F04D0BB60636D43F0C8
:1020500002036365E26D04239340334209D0226892
:10206000126812F0020F04D0BB60636D43F00403EA
:102070006365E26D10239340334224D022681268D6
:1020800012F0080F1FD0BB6023681A6812F4802F6B
:102090000DD01B6813F4002F04D1236C9BB1204694
:1020A000984710E0A36C73B1204698470BE01A687C
:1020B00012F4807F03D11A6822F008021A60236CA0
:1020C0000BB120469847E26D20239340334255D010
:1020D0002268126812F0100F50D0BB6094F83530AF
:1020E000DBB2052B0ED023681A6812F4802F33D090
:1020F0001B6813F4002F2AD1636C002B3ED02046BE
:1021000098473BE02268136823F0160313602268A7
:10211000536923F080035361236CA3B122681368D1
:1021200023F008031360E26D3F239340BB6001235B
:1021300084F83530002384F83430236D002B3FD0F1
:10214000204698473CE0A36C002BE7D1EBE7E36B1C
:10215000A3B12046984711E01A6812F4807F09D194
:102160001A6822F010021A60012384F83530002327
:1021700084F83430E36B0BB120469847636DFBB1B4
:10218000636D13F0010F17D0052384F835302268F2
:10219000136823F001031360019B01330193AB42E9
:1021A00004D823681B6813F0010FF5D1012384F8CC
:1021B0003530002384F83430E36C0BB12046984767
:1021C00003B0F0BD04000020B5814E1B00230F2B8F
:1021D00000F2E48070B582B060E085685E000324A0
:1021E000B44025EA0405CC68B4402C4384604568BB
:1021F00025EA02054C68C4F300129A402A43426063
:102200005AE0DC08083450F8246003F00702950017
:102210000F22AA4026EA020E0A69AA4042EA0E02EA
:1022200040F824205CE0072200E0002202FA0EF2CF
:102230002A4302345A4D45F824205A4A94686FEADA
:102240000C0224EA0C054E6816F4801F01D04CEAFB
:102250000405544CA560E46802EA04054E6816F4CF
:10226000001F01D04CEA04054E4CE560646802EAA8
:1022700004054E6816F4003F01D04CEA0405494CB1
:102280006560246822404D6815F4803F01D04CEA17
:102290000402444C226001330F2B7DD801229A4066
:1022A0000C6804EA020C32EA0404F4D14C6804F02D
:1022B0000304013C012C90D94A6802F00302032A6E
:1022C00009D0C4685D000322AA4024EA02048A6897
:1022D000AA402243C2604A6802F00302022A90D058
:1022E00004684FEA430E032202FA0EF224EA0204C3
:1022F0004A6802F0030202FA0EF2224302604A68C0
:1023000012F4403FC7D000220192274A546C44F493
:1023100080445464526C02F480420192019A9C08F9
:10232000A51C1F4A52F8255003F003024FEA820E03
:102330000F2202FA0EF225EA02051C4A90423FF4EF
:1023400074AF02F5806290421AD002F5806290422A
:1023500018D002F58062904216D002F58062904259
:1023600014D002F58062904212D002F58062904251
:1023700010D002F5806290423FF455AF082255E735
:10238000012253E7022251E703224FE704224DE7DF
:1023900005224BE7062249E702B070BD704700BF37
:1023A00000380140003C014000380240000002407B
:1023B000002800F0E08170B582B00446036813F095
:1023C000010F3BD09F4B9B6803F00C03042B2CD0D8
:1023D0009C4B9B6803F00C03082B21D06368B3F57A
:1023E000803F4FD0B3F5A02F52D0964B1A6822F4FD
:1023F00080321A601A6822F480221A606368002B07
:1024000050D0FFF74DF905468E4B1B6813F4003F83
:1024100014D1FFF745F9401B6428F5D90320B1E139
:10242000884B5B6813F4800FD8D0864B1B6813F47D
:10243000003F03D06368002B00F09F81236813F0F6
:10244000020F54D07F4B9B6813F00C0F3ED07D4B96
:102450009B6803F00C03082B33D0E368002B68D093
:10246000794B01221A60FFF71BF90546754B1B6873
:1024700013F0020F54D1FFF713F9401B0228F5D9CE
:1024800003207FE16F4A136843F480331360B5E79C
:102490006C4B1A6842F480221A601A6842F4803247
:1024A0001A60ABE7FFF7FCF80546664B1B6813F4B0
:1024B000003FC3D0FFF7F4F8401B6428F5D9032090
:1024C00060E1604B5B6813F4800FC6D15D4B1B6805
:1024D00013F0020F03D0E368012B40F05081594AFA
:1024E000136823F0F803216943EAC10313602368EA
:1024F00013F0080F42D063696BB3534B0122C3F84A
:10250000802EFFF7CDF805464E4B5B6F13F0020FA0
:1025100034D1FFF7C5F8401B0228F5D9032031E17B
:10252000484A136823F0F803216943EAC1031360A2
:10253000DDE7454B00221A60FFF7B2F80546414B34
:102540001B6813F0020FD2D0FFF7AAF8401B022835
:10255000F5D9032016E13C4B0022C3F8802EFFF78B
:102560009FF80546374B5B6F13F0020F06D0FFF75D
:1025700097F8401B0228F5D9032003E1236813F0E4
:10258000040F77D02F4B1B6C13F0805F33D10023E7
:1025900001932C4B1A6C42F080521A641B6C03F0AE
:1025A00080530193019B0125284B1B6813F4807F06
:1025B00023D0A368012B34D0052B38D0214B1A6FC0
:1025C00022F001021A671A6F22F004021A67A36848
:1025D000002B3DD0FFF764F806461A4B1B6F13F033
:1025E000020F46D1FFF75CF8801B41F28833984216
:1025F000F3D90320C6E00025D6E7144A136843F454
:1026000080731360FFF74CF80646104B1B6813F4F9
:10261000807FCED1FFF744F8801B0228F5D9032034
:10262000B0E0084A136F43F001031367CFE7054B8F
:102630001A6F42F004021A671A6F42F001021A6719
:10264000C5E700BF0038024000004742007000406C
:10265000FFF726F80646524B1B6F13F0020F08D007
:10266000FFF71EF8801B41F288339842F3D903200C
:1026700088E0EDB9A369002B00F08380484A926896
:1026800002F00C02082A51D0022B17D0454B002231
:102690001A66FFF705F80446414B1B6813F0007FEC
:1026A00042D0FEF7FDFF001B0228F5D9032069E0A8
:1026B0003B4A136C23F080531364DBE7394B002251
:1026C0001A66FEF7EDFF0546354B1B6813F0007FD9
:1026D00006D0FEF7E5FF401B0228F5D9032051E0A4
:1026E000E369226A1343626A43EA8213A26A5208C8
:1026F000013A43EA0243E26A43EA0263284A53602A
:10270000284B01221A66FEF7CBFF0446244B1B68B8
:1027100013F0007F06D1FEF7C3FF001B0228F5D996
:1027200003202FE000202DE000202BE0012B2BD0F8
:102730001B4B5B6803F48001E269914226D103F0F0
:102740003F02216A8A4223D1616A47F6C0721A4069
:10275000B2EB811F1ED103F44031A26A5208013A44
:10276000B1EB024F18D103F07063E26AB3EB026F72
:1027700014D1002006E001207047012002E0012072
:1027800000E0002002B070BD0120FBE70120F9E766
:102790000120F7E70120F5E70120F3E70120F1E749
:1027A000003802400000474208B5314B9B6803F0F7
:1027B0000C03042B57D0082B57D12D4B5A6802F02D
:1027C0003F025B6813F4800F2AD0294B5968C1F38C
:1027D000881C4FEA4C11B1EB0C006EEB0E0E4FEA69
:1027E0008E1343EA90638101091A63EB0E03DB0049
:1027F00043EA5173C90011EB0C0C43F10003590279
:1028000000234FEA4C2041EADC51FDF7F9FC184B5C
:102810005B68C3F3014301335B00B0FBF3F025E0D9
:10282000134B5968C1F3881C4FEA4C11B1EB0C00F3
:102830006EEB0E0E4FEA8E1343EA90638101091A84
:1028400063EB0E03DB0043EA5173C90011EB0C0C80
:1028500043F10003990200234FEA8C2041EA9C5186
:10286000FDF7CEFCD3E7034800E0034808BD00BFF6
:102870000038024000127A000024F400002800F022
:102880009B8070B50D4604464F4B1B6803F0070351
:102890008B4208D2CBB24C4A1370136803F0070383
:1028A0008B4240F08B80236813F0020F17D013F097
:1028B000040F04D0454A936843F4E05393602368BF
:1028C00013F0080F04D0414A936843F460439360C7
:1028D0003E4A936823F0F003A1680B43936023689A
:1028E00013F0010F32D06368012B21D09A1E012A08
:1028F00025D9364A126812F0020F61D033498A682E
:1029000022F0030213438B60FEF7CAFE06462F4BEC
:102910009B6803F00C036268B3EB820F16D0FEF7DE
:10292000BFFE801B41F288339842F0D9032042E079
:10293000264A126812F4003FE0D101203BE0234A0E
:10294000126812F0007FD9D1012034E01E4B1B68C1
:1029500003F00703AB4207D9EAB21B4B1A701B689E
:1029600003F00703AB422DD1236813F0040F06D008
:10297000164A936823F4E053E1680B43936023689D
:1029800013F0080F07D0114A936823F460432169BC
:1029900043EAC1039360FFF707FF0C4B9B68C3F347
:1029A00003130B4AD35CD8400A4B18600A4B1868D3
:1029B000FEF72AFE002070BD012070470120FAE7D3
:1029C0000120F8E70120F6E7003C02400038024011
:1029D0007C900008040000200C000020014B1868C7
:1029E000704700BF0400002008B5FFF7F7FF044B55
:1029F0009B68C3F38223034AD35CD84008BD00BF61
:102A0000003802408C90000808B5FFF7E7FF044B40
:102A10009B68C3F34233034AD35CD84008BD00BF70
:102A2000003802408C900008026802F10C0353E861
:102A3000003F23F490730C3242E800310029F3D1B7
:102A4000026802F1140353E8003F23F0010314323B
:102A500042E800310029F3D1036B012B05D020237C
:102A600080F84230002303637047026802F10C03D0
:102A700053E8003F23F010030C3242E800310029F4
:102A8000F3D1ECE790F84130DBB2212B01D00220EA
:102A900070478368B3F5805F17D0036A5A1C0262DF
:102AA0001A7803685A60C38C9BB2013B9BB2C38403
:102AB0004BB90268D36823F08003D3600268D368FF
:102AC00043F04003D360002070470369002BE4D13A
:102AD000036A1B880268C3F308035360036A023366
:102AE0000362E0E738B504460268136923F44053F3
:102AF000C1680B431361836802691343426913433E
:102B0000C2691A430168CB6823F4164323F00C030F
:102B10001343CB600268536923F4407381690B430C
:102B200053610368314A934206D002F580629342B2
:102B300002D0FFF759FF01E0FFF766FFE369B3F545
:102B4000004F29D00021031849411B1841F1000111
:102B5000C90041EA5371DB00181863684FEA830229
:102B60004FEA937341F10001FDF74AFB204DA5FBAD
:102B700000325109642303FB11031B013233A5FB0F
:102B800003235B0903F0F00202EB011203F00F03D1
:102B9000216813448B6038BD0023021843EB030106
:102BA000121841F10001C90041EA5271D200101817
:102BB00041F10001626892185B41FDF721FB0C4D69
:102BC000A5FB00325109642303FB1103DB00323300
:102BD000A5FB03235B095A0002F4F87202EB011211
:102BE00003F00703216813448B60D4E70010014011
:102BF0001F85EB512DE9F04383B005460E4617467D
:102C00009946DDF828802C68246836EA04030CBF56
:102C10004FF0010C4FF0000CBC4528D1B8F1FF3F3C
:102C2000F1D0FEF73DFDA0EB0900404523D8B8F1F7
:102C3000000F22D02B68DA6812F0040FE3D0802E48
:102C4000E1D0402EDFD01A6812F0080FDBD000244C
:102C500001941A6801925B680193019B2846FFF773
:102C6000E3FE08236B6485F84040012000E000206B
:102C700003B0BDE8F0830320FAE70320F8E760B370
:102C800010B5044690F8413013B3242384F8413042
:102C90002268D36823F40053D3602046FFF722FF55
:102CA0002268136923F4904313612268536923F067
:102CB0002A0353612268D36843F40053D360002091
:102CC0006064202384F8413084F84230606310BD92
:102CD00080F84030FEF72EFCD7E7012070472DE941
:102CE000F04182B01E4690F84130DBB2202B56D125
:102CF00004460D469046002955D00AB901204FE000
:102D000000234364212380F84130FEF7C9FC0746C5
:102D1000A4F82480A4F82680A368B3F5805F02D0CD
:102D20004FF0000814E023692BB34FF000080FE0C8
:102D3000202384F84130032032E038F8023B226837
:102D4000C3F308035360E28C92B2013A92B2E28478
:102D5000E38C9BB293B100963B4600228021204633
:102D6000FFF748FF0028E3D1002DE6D015F8012B2E
:102D700023685A60E7E7A8460025E9E700963B4646
:102D8000002240212046FFF735FF18B9202384F8A0
:102D9000413005E0202384F84130032000E0022088
:102DA00002B0BDE8F0810120FAE7704708B501687C
:102DB000CA6822F04002CA60202280F84120FFF752
:102DC000F4FF002008BD7047704708B5806B0023F2
:102DD000C385C384FFF7F8FF08BD704790F8423001
:102DE000DBB2222B69D18368B3F5805F4FD0826A52
:102DF000B3F5805F04D0002B56D10369002B53D16B
:102E000003685B681370836A01338362C38D9BB26E
:102E1000013B9BB2C385002B51D100B583B0026842
:102E2000D36823F02003D3600268D36823F480734F
:102E3000D3600268536923F001035361202380F8B3
:102E4000423000234363036B012B33D10023036320
:102E5000026802F10C0353E8003F23F010030C3228
:102E600042E800310029F3D103681A6812F0100F0C
:102E700006D0002201921A6801925B680193019BBF
:102E8000818DFFF7AAFF002003B05DF804FB026903
:102E9000002AACD1826A03685B68C3F3080313801D
:102EA000836A02338362B1E703685B6803F07F03E0
:102EB0001370A8E7FFF787FFE5E7022070470020BF
:102EC0007047000030B583B0044602681368D068CC
:102ED000516913F00F0505D113F0200F02D010F047
:102EE000200F19D12DB111F0010119D110F4907FEB
:102EF00016D1216B01297DD013F0800F03D010F083
:102F0000800F40F0198113F0400F03D010F0400FF4
:102F100040F0168103B030BD2046FFF75FFFF9E7B0
:102F200013F0010F06D010F4807F03D0626C42F0E2
:102F30000102626413F0040F04D019B1626C42F014
:102F40000202626413F0020F04D019B1626C42F005
:102F50000402626413F0080F07D010F0200F00D1B4
:102F600019B1626C42F008026264626C002AD1D02E
:102F700013F0200F02D010F0200F29D123685B69D5
:102F800003F04003626C12F0080F00D163B32046D7
:102F9000FFF74AFD23685B6913F0400F20D02268D9
:102FA00002F1140353E8003F23F04003143242E8D7
:102FB00000310029F3D1E36B73B1634A1A65E06B0A
:102FC000FFF703F80028A5D0E06B036D9847A1E751
:102FD0002046FFF703FFD1E72046FFF7F5FE99E70C
:102FE0002046FFF7F1FE95E72046FFF7EDFE0023B0
:102FF00063648FE713F0100F3FF47EAF10F0100FF3
:103000003FF47AAF0023019313680193536801934F
:10301000019B536913F0400F52D0E26B13685B6859
:103020009BB2002B3FF476AFA18D99427FF672AF31
:10303000E385D369B3F5807F37D0226802F10C03B2
:1030400053E8003F23F480730C3242E8003100293A
:10305000F3D1226802F1140353E8003F23F0010387
:10306000143242E800310029F3D1226802F114033E
:1030700053E8003F23F04003143242E800310029B6
:10308000F3D1202384F8423000232363226802F125
:103090000C0353E8003F23F010030C3242E80031E8
:1030A0000029F3D1E06BFEF746FF02236363A18D95
:1030B000E38D9BB2C91A89B22046FFF78EFE29E73D
:1030C000A18DE38D9BB2C91A89B2E38D9BB2002B0F
:1030D0003FF420AF00293FF41DAF226802F10C033A
:1030E00053E8003F23F490730C3242E8003000288C
:1030F000F3D1226802F1140353E8003F23F00103E7
:10310000143242E800300028F3D1202384F8423002
:1031100000232363226802F10C0353E8003F23F0ED
:1031200010030C3242E800300028F3D1022363631D
:103130002046FFF752FEEDE62046FFF7A3FCE9E646
:103140002046FFF733FEE5E6CB2D0008014B18685B
:10315000704700BF1000002070B50D4E0D4D761B5E
:10316000B61006D0002455F8043B01349847A64217
:10317000F9D1094E094D761B05F072FFB61006D045
:10318000002455F8043B01349847A642F9D170BD9C
:10319000A0940008A0940008A8940008A094000837
:1031A000830730B548D0541E002A3FD0CAB2034628
:1031B00001E0013C3AD303F8012B9D07F9D1032C20
:1031C0002DD9CDB245EA05250F2C45EA054536D95E
:1031D000A4F1100222F00F0C03F1200EE6444FEA96
:1031E000121C03F1100242E9045542E90255103263
:1031F0007245F8D10CF1010214F00C0F03EB02122E
:1032000004F00F0C13D0ACF1040323F003030433D8
:10321000134442F8045B9342FBD10CF003042CB13D
:10322000CAB21C4403F8012B9C42FBD130BD64465A
:103230001346002CF4D1F9E703461446BFE71A46BB
:10324000A446E0E70CB410B51F4B00291C689CB0E5
:1032500035DB4FF40273ADF81430029006901FABCB
:1032600018D001394FF6FF7204910791ADF816207E
:1032700002A91E9A0193204600F028F8421C01DAA8
:103280008B232360029B00221A701CB0BDE8104003
:1032900002B070474FF6FF7204910791ADF8162007
:1032A00002A91E9A0193204600F010F8431C01DA8F
:1032B0008B2323601CB0BDE8104002B070478B2305
:1032C00023604FF0FF30F5E7100000202DE9F04FAC
:1032D000D5B00C460C9191460E930A9002F086FEF2
:1032E000036817931846FDF70BFAA3891690190681
:1032F00003D52369002B00F08B8700242BAB4D46B0
:10330000CDE92944CDE91944CDE91B441294289311
:1033100098461894002308940024CDE914342B789F
:10332000002B00F0DD81AA4604E01AF8013F002BD3
:1033300000F01681252BF8D1BAEB050640F0148178
:103340009AF80030002B00F0CB8100234FF0FF32C1
:103350009AF801608DF8833009930AF1010A079207
:103360001F462B244FF020090AF1010AA6F1200381
:103370005A2B00F22D81DFE813F0BA022B012B014A
:10338000B5022B012B012B016A002B012B014F02EF
:10339000E3022B015A02C9022B01C4025B005B004D
:1033A0005B005B005B005B005B005B005B002B0174
:1033B0002B012B012B012B012B012B01BF012B0119
:1033C0001A028600BF01BF01BF012B012B012B0197
:1033D0002B01B0022B012B01C3002B012B012B0170
:1033E00024022B015F022B012B013C072B012B0137
:1033F0002B012B012B012B012B012B01BF012B01D9
:103400001A028800BF01BF01BF01A302880081002A
:103410002B0196022B018202C500700281002B0154
:1034200024027E0039072B012B0119072B017E0096
:10343000A6F1300300221AF8016B02EB820203EBC3
:103440004202A6F13003092BF5D909928EE7DDF887
:1034500028B0584602F0CAFD43681B931846FDF792
:103460004FF91C900646584602F0C0FD8368199338
:10347000002E40F07A869AF8006075E79AF80060AE
:1034800047F0200770E747F01007BA060E9B40F19F
:103490008081073323F007031A465B6852F8084B14
:1034A0000E929946002BC0F25F85079B013301F015
:1034B0001F8054EA090327F0800B00F0E3840A2CF4
:1034C00079F1000380F08187303401238DF84F417A
:1034D0005F460B930DF24F1507990B989DF88320CB
:1034E00081424FF00003B8BF01460D9306910F9340
:1034F00013931093002A7CD0069B0133069378E047
:1035000047F0100717F0200900F034810E9B0733B5
:1035100023F00703D3F8049053F8084B0E9327F4D5
:10352000806B002300228DF88320079A511C00F045
:103530000D8254EA09012BF0800740F00682002A30
:1035400041F01080002B40F0A2841BF001030B938C
:1035500000F0378530238DF84F310DF24F15BBE762
:10356000BAEB050600F0BC802A9B33442A93299BC2
:103570000133072BC8E90056299305DC08F1080838
:10358000089B33440893DBE60C990A9828AA03F0B9
:103590001BFC80B90DF1AC08F2E70C990A9828AA37
:1035A00003F012FC002800F08C800D9B1BB10D99DC
:1035B0000A9802F015FC0C9B9B8913F0400F089BA6
:1035C00018BF4FF0FF330893089855B0BDE8F08F4F
:1035D000002E00F0858000228DF8EC608DF88320AD
:1035E000012306930D920B9307920F921392109260
:1035F0003BAD17F0020302D006990231069117F095
:10360000840B07D109990698A1EB0009B9F1000FC5
:1036100000F315832A9C8AB1299A0DF183010132A6
:103620000134C8F80010072A4FF001012A942992AA
:10363000C8F8041000F3468308F1080883B1299BF9
:1036400021AA01330234C8F80020072B4FF00202F0
:103650002A942993C8F8042000F3488308F1080845
:10366000BBF1800F00F00E82079B0B9AA3EB020BBD
:10367000BBF1000F00F34F82FB0500F1A5810B9B0E
:10368000C8F804301C44299BC8F800500133072BAC
:103690002A94299300F3C78208F108087B0705D50F
:1036A000099B069A9D1A002D00F32C83DDE9083250
:1036B00006998A42ACBF9B185B180893002C7FF4D4
:1036C0006CAF002329930D9B1BB10D990A9802F052
:1036D00087FB0DF1AC0855462B78002B7FF423AE09
:1036E0002A9B002B3FF467AF0C9C0A9828AA21461E
:1036F00003F06AFBA38960E70E9B073323F0070200
:10370000F2E80234CDE91434DDE9143424F0004445
:103710000E92994618462146A74B4FF0FF32FDF70F
:10372000B3FC002840F06284A34B484621464FF08A
:10373000FF32FDF78BFC002840F05884DDE91401CE
:1037400000220023FDF778FC002840F0AD879DF8AB
:1037500083209A4D9A4B27F080070321472EC8BF3C
:103760001D4600230D9306910B9107930F9313931E
:103770001093BFE617F0100340F02E8417F04002BC
:1037800000F054870E9A52F8044B0E929946A4B258
:10379000C5E653F8044B0E93FB0600F118847D0632
:1037A00040F1128444F3C0394B4624B27AE60E9BB2
:1037B000002253F8041B8DF883208DF8EC100E9333
:1037C0000EE70E9C079B54F8045B4FF000098DF840
:1037D0008390002D00F0D5865A1C00F052851A46C1
:1037E00049462846FCF794FE0D90002801F05780CA
:1037F0000D9BCDF81C905B1B0B930E9423EAE37397
:103800009DF883200693CDF83490CDF83C90CDF808
:103810004C90CDF840906DE60E9B53F8042B099226
:10382000002A80F2C983099A0E93524209929AF8AB
:10383000006047F0040797E547F0100B1BF02009E4
:1038400000F081830E9B073323F00703D3F8049025
:1038500053F8084B0E93012364E60E9B53F8044B78
:103860000E93302378268DF88430564B189347F00A
:10387000020B8DF885604FF00009022352E6BD0669
:1038800000F18284FC0600F17386780600F13C8723
:10389000B90540F16D860E9B089953F8042B0E93E1
:1038A0001170554618E79AF800606C2E03BF9AF81D
:1038B000016047F020070AF1010A47F0100753E5BD
:1038C0009AF80060682E03BF9AF8016047F4007709
:1038D0000AF1010A47F0400746E59AF8006047F010
:1038E000080741E59AF8006047F001073CE59DF8BC
:1038F0008330002B7FF4BFAD9AF800608DF8839081
:1039000032E59AF8006047F080072DE5524612F83C
:10391000016B2A2E01F0CD81A6F13003092B9246CE
:1039200098BF002201F288801AF8016B02EB820234
:1039300003EB4202A6F13003092BF5D9079215E5F6
:103940009AF800608DF883400EE5BB46012B3FF4EA
:10395000B6AD022B54AD12D1189A04F00F0324090E
:10396000D35C05F8013D44EA09744FEA191954EA99
:103970000903F2D154AB5B1B5F460B93ACE504F03B
:103980000703E40844EA49744FEAD909303354EA9A
:1039900009012A4605F8013DF1D11BF0010FE9D0DC
:1039A000302BE7D03023023A05F8013C54AB9B1A88
:1039B0005F460B9315468FE5FFFFEF7FA090000851
:1039C000A4900008B0900008652E40F3E680DDE981
:1039D000140100220023FDF725FB002800F0CD8113
:1039E000299BBF4AC8F80020013301340122072B6C
:1039F0002A942993C8F8042000F37D8508F108086B
:103A0000229B129A934280F2D382169B179A1C44EF
:103A1000C8E90023299B2A940133072B299300F33B
:103A2000EB8308F10808129B5D1E002D7FF736AE70
:103A3000102D299BDFF8AC9240F36E854946224653
:103A4000B946DDF828B00C9C10260F4605E008F1B9
:103A50000808103D102D40F35B8501331032072B11
:103A6000C8E90076CDE92932F1DD28AA2146584679
:103A700003F0AAF900287FF498ADDDE929320DF1B1
:103A8000AC08E6E7099B069AA3EB020BBBF1000F1B
:103A90007FF7EAADBBF1100F299ADFF848922CDDD1
:103AA0001D9621464E460C9CDDF82890102306E01A
:103AB000ABF1100BBBF1100F08F108081ADD013251
:103AC0001031072AC8E90063CDE92921F0DD28AAD1
:103AD000214648460DF1AC0803F076F900287FF442
:103AE00064ADABF1100BBBF1100FDDE929214FF0F4
:103AF0001003E4DCB1461D9E0C4601325C44072AEB
:103B0000CDE92924C8F80090C8F804B000F31D8559
:103B100008F10808A8E5BBF1100F299ADFF8C49155
:103B20002DDD41462046A8464C460C9DDDF82890E8
:103B3000102306E0ABF1100BBBF1100F01F10801EF
:103B400019DD01321030072AC1E90043CDE92920EF
:103B5000F0DD28AA2946484603F036F900287FF40C
:103B600024ADABF1100BBBF1100FDDE929202BA91F
:103B70004FF01003E5DC4546A14688460446013275
:103B80005C44072ACDE92924C8F80090C8F804B09D
:103B900000F3CC8108F108086EE5129B012B40F37D
:103BA0007C81299EC8F80050013601340123072E7C
:103BB0002A942996C8F8043000F3E08108F1080837
:103BC000169B179A01361C44072EC8E90023CDE93D
:103BD000296400F3E08108F10808DDE914010022FE
:103BE0000023FDF71FFA002840F07481129B013674
:103BF000013B01351C44072EC8F800502996C8F82F
:103C000004302A9400F3598108F108081A9BC8F877
:103C1000043001361C44072E24ABCDE92964C8F8D2
:103C200000307FF739AD0C990A9828AA03F0CCF838
:103C300000287FF4BAAC2A9C0DF1AC082EE5B9F14E
:103C4000100FDDE929212BDDCDE91D3B1F96DDF8A5
:103C500028B04E461024A9460C9D04E0103E102EBC
:103C600008F1080817DD01321F4B1031072AC8E997
:103C70000034CDE92921F1DD28AA294658460DF165
:103C8000AC0803F0A1F800287FF48FAC103E102E92
:103C9000DDE92921E7DCDDE91D3B4D46B1461F9EEC
:103CA000C8F80490013209EB0104072A0E49C8F84C
:103CB0000010CDE9292400F3FF839DF8832008F14B
:103CC0000808A8E40C990A981D9328AA03F07CF828
:103CD00000287FF46AAC2A9C1D9B0DF1AC08ADE472
:103CE000E0900008F4900008E49000080C990A980D
:103CF00028AA03F069F800287FF457AC2A9C0DF13C
:103D0000AC08ADE4102D299B21DD0A9FDDF8309031
:103D1000102604E0103D102D08F1080817DD0133CE
:103D2000B04A1034072BC8E90026CDE92934F1DD6B
:103D300028AA494638460DF1AC0803F045F800289A
:103D40007FF433AC103D102DDDE92934E7DC01337D
:103D5000A44AC8F804502C44072BCDE92934C8F8EC
:103D600000207FF7A3AC0C990A9828AA03F02CF83E
:103D700000287FF41AAC2A9C98E42299002940F389
:103D80006683DDF84090129B9945A8BF9946B9F12A
:103D9000000F0BDD299B01334C44072BC8E9005968
:103DA0002A94299300F32F8508F10808109EB9F191
:103DB000000FA8BFA6EB0906002E00F33882DDF83D
:103DC00040B07805AB4400F16682229B129A934280
:103DD00002DBF90740F18E84169A17991444C8E95A
:103DE0000012299A2A940132072A299200F3188591
:103DF00008F10808129AAE18A6EB0B06D51AAE42C7
:103E0000A8BF2E46002E0DDD299BC8F800B0013357
:103E10003444072BC8F804602A94299300F31A86C7
:103E200008F10808002EA8BFAD1B002D7FF736ACA7
:103E3000102D299BDFF8B09140F36E83494622464E
:103E4000B946DDF828B00C9C10260F4605E008F1B5
:103E50000808103D102D40F35B8301331032072B0F
:103E6000C8E90076CDE92932F1DD28AA2146584675
:103E700002F0AAFF00287FF498ABDDE929320DF1AA
:103E8000AC08E6E7079B002B7FF41EAB5F460023E0
:103E900007930B9354ADFFF71FBBFA073FF581AEB5
:103EA000299EC8F80050013601340123072E2A94B8
:103EB0002996C8F804307FF7A7AE0C990A9828AA6B
:103EC00002F082FF00287FF470ABDDE929640DF178
:103ED000AC089BE6129B5D1E002D7FF797AE102D60
:103EE000DFF8049140F39683224607970A9C0C9FC3
:103EF0004FF0100B05E008F10808103D102D40F3BD
:103F0000878301361032072EC8E9009BCDE929626C
:103F1000F1DD28AA3946204602F056FF00287FF43A
:103F200044ABDDE929620DF1AC08E6E70C990A988B
:103F300028AA02F049FF00287FF437AB2A9C0DF134
:103F4000AC08FFF799BB1BF0100340F028811BF071
:103F5000400200F079830E9A52F8044B0E92994673
:103F6000A4B20123FFF7DEBA2D2364428DF883301B
:103F700069EB4909BB460123FFF7D7BA0C990A98A8
:103F800028AA02F021FF00287FF40FABDDE92964A5
:103F90000DF1AC0814E60C990A9828AA02F014FF57
:103FA00000287FF402ABDDE929640DF1AC0814E6CA
:103FB000FD077FF573AB28E59AF800600E93FFF7D5
:103FC000D3B954ADFFF788BAB80500F1A6834FEA1C
:103FD000E4794B46FFF766BA0E9B53F8044B0E93F9
:103FE000FFF79DBAE4900008F4900008DDE91401A1
:103FF00002460B46FDF748F8002840F00F86612E78
:1040000000F04585412E00F06D84079B013326F0BA
:104010002003069300F0A983472B00F08885DDE993
:10402000141247F480730F931346002BC0F292854D
:104030000B9300231D938B460D93069B462B00F09C
:10404000FD83452B00F044850799019126A9049131
:1040500023A9039122A9029102210B9B0A980091A6
:104060005A4600F0F5FE069B472B054640F0318688
:1040700017F0010FB9460F9F40F0FC84269B5B1B95
:104080001293069B472B00F08283069B462B00F081
:104090001284229B1093109B069A013B412A229383
:1040A00000F0AD85F2B20021002BB8BF109B8DF857
:1040B0009020BABFC3F101032D222B22092B8DF8CA
:1040C000912040F38D850DF19F04B64F2246104696
:1040D00087FB0321DA17C2EBA10202EB8201A3EBFB
:1040E0004101303100F8011C19466329134600F1E3
:1040F000FF32ECDC3033D9B2831E9C4202F8011C43
:1041000040F2F18513460DF1920201E013F8011B14
:1041100002F8011B9C42F9D10DF1A1030DF19202AD
:104120001B1A134424AA9B1A1A93129B1A9A012B46
:104130001A440B9240F39E850B9B169A13440B93E3
:104140000B9A002329F4806722EAE27247F4807711
:104150000F930692139310931D9B002B40F03F8307
:104160009DF883200793FFF7C5B9199B002B3FF4F7
:1041700082A9199B1B78002B3FF47DA99AF8006057
:1041800047F48067FFF7F0B80E9B089853F8041BBC
:104190000E93C217C1E900025546FFF79DBA0E9B68
:1041A00053F8044B0E930123FFF7BCB97E4B1893D1
:1041B00017F0200900F0EC800E9B073323F0070373
:1041C000D3F8049053F8084B0E93F80709D554EA36
:1041D000090306D030238DF8856047F002078DF87B
:1041E000843027F4806B0223FFF79CB9BB46FFF7AE
:1041F00025BB6E4B1893DBE70C990A9828AA02F0AE
:10420000E3FD00287FF4D1A92A9C0DF1AC080AE453
:104210000A98402101F0F6FE0C9B186018610028F6
:1042200000F065850C9A40235361FFF766B8102EA5
:10423000299BDFF87C9140F329824846424621467B
:10424000A846B9460A9C0C9D4FF0100B074604E0A7
:104250000832103E102E40F3138201331031072B29
:10426000C2E9007BCDE92931F2DD28AA29462046A2
:1042700002F0AAFD00287FF498A9DDE929312BAAD4
:10428000E7E72846CDF81C900E94FCF739FA034670
:104290000B90FFF7B3BA129BCDF82CA04246DDF885
:1042A0004C801097EB1807935E46199FDDF87090CD
:1042B000DDF828A0DDF830B00F9B13952146B8F14A
:1042C000000F2FD0002B30D1013F08F1FF381B9B8E
:1042D000C2E90039299B01334944072B2A912993CC
:1042E00068DC0832079B38789B1B8342A8BF0346D3
:1042F000002B1C460BDD2998013019440728C2E920
:1043000000632A91299000F3148138780832002C38
:10431000ACBF051B0546002D0BDC06440F9BB8F116
:10432000000FCFD1002B00F023820F9B013B0F9396
:10433000CDE7102D29981DDD102404E0103D102D2F
:1043400002F1080216DD0130194B10310728C2E9CD
:104350000034CDE92901F1DD28AA5946504602F082
:1043600033FD00287FF421A9103D102DDDE929013E
:104370002BAAE8DC01300E4B556029440728CDE913
:104380002901136000F33282387808320644C5E709
:1043900017F0100300F0A1800E9B53F8044B0E930E
:1043A00013E700BF67666666B0900008C490000817
:1043B000F490000828AA5946504602F005FD00284E
:1043C0007FF4F3A82A992BAA8CE70BF480630022D0
:1043D0000696CDF82CA0CDF8348054AFDDF864807B
:1043E0009A4616460CE00023204649460A22FBF76F
:1043F00007FF0A2C79F100031BD3044689462F4698
:1044000020460A2200234946FBF7FAFE30327D1E81
:10441000013607F8012CBAF1000FE4D098F800300B
:104420009E42E0D1FF2EDED00A2C79F1000380F00D
:10443000408154AB5B1BDDF82CA0CDF86480129654
:10444000DDF83480069E0B935F46FFF745B8299B45
:10445000BC4AC8F80020013301340122072B2A94FA
:104460002993C8F8042000F3388108F108080029CE
:1044700040F09780129A07F0010313433FF40EA90E
:10448000169B17991A19C8E90013299B2A92013320
:10449000072B299300F3478108F108081299C8F8FF
:1044A000005001338C18072BCDE92934C8F80410CB
:1044B0007FF7F2A8FFF7B7BB0C990A981D9328AABB
:1044C00002F082FC00287FF470A89DF883202A9CCB
:1044D0001D9B0DF1AC08FFF79EB817F0400200F0ED
:1044E000C2800E9A52F8044B0E929946A4B26CE622
:1044F000BB46FEF7E4BF0C990A9828AA02F064FCB8
:1045000000287FF452A82A9C0DF1AC08FFF778BA76
:1045100014463A464F46914601332C44072BC8F8BF
:104520000090C8F80450CDE929347FF7B5A8FFF70B
:104530007ABB28AA5946504602F046FC00287FF470
:1045400034A838782A992BAAE1E60C990A9828AA67
:1045500002F03AFC00287FF428A82A9C0DF1AC0850
:10456000FFF782B8012BBB467FF4F3A9FEF7ACBF7F
:104570000E9B089953F8042B554611600E93FFF7D4
:10458000ABB8062B294628BF062307950D952A466A
:1045900006936D4D0E940B930F9113911091FEF7AE
:1045A000A9BF169B17981A19C8E90003299B2A92DC
:1045B0000133072B299300F3B68008F1080800297E
:1045C000BFF66CAF4E421031DFF8809180F29782D7
:1045D0004146DDF828B0A84610240C9D04E00831BF
:1045E000103E102E40F3898201331032072BC1E9AF
:1045F0000094CDE92932F2DD28AA2946584602F076
:10460000E3FB00287EF4D1AFDDE929322BA9E7E7EF
:10461000079F144601362C44072ECDE92964C8F8BB
:104620000090C8F804507FF7EFAA46E40E9B17F4F9
:10463000007914BF53F8044B53F8044B0E931CBF7E
:104640009146E4B2FEF76BBF0E9B1BF4007914BFDA
:1046500053F8044B53F8044B0E931CBF9146E4B23D
:104660000123FEF75FBF0E9B17F4007914BF53F8C8
:10467000044B53F8044B0E931CBF9146E4B2A4E5DF
:10468000454690463A460C464F46914601333444DF
:10469000072BCDE92934C8F80090C8F8046057DC2E
:1046A00008F10808FFF78BBB2D228DF88320FFF758
:1046B00050B81C9B1B99ED1A1A46284602F052FB73
:1046C00098F801300BB108F10108204649460A224A
:1046D00000230026FBF794FD8FE60C990A9828AA80
:1046E00002F072FB00287EF460AF22992A9C0DF143
:1046F000AC08BCE6129AAE18A6EB0B06D51AAE4271
:10470000A8BF2E46FFF78EBB0E9B089953F8042BCB
:104710000E9311805546FEF7DFBF44F3C0194B4698
:1047200064B2FEF7BFBE0C990A9828AA02F04CFBAF
:1047300000287EF43AAFDDE9293222990DF1AC0868
:104740003DE700BFE0900008D8900008F490000812
:104750000C990A9828AA02F037FB00287EF425AFAE
:104760002A9C0DF1AC08FFF72ABB0623079356E4F9
:10477000DDE91235EB189E421997B346DDF82CA0FF
:10478000109F90460C4628BF9B46FFF71EBB229BFE
:104790001093DA1C02DB079A934204DD023E26F0F6
:1047A0002003069377E4109B129A9342C0F248814B
:1047B00019F0010F00F01182169A13440B9319F4AB
:1047C000806F03D0109B002B00F3C7810B9B23EA63
:1047D000E3730693672600230F931393BCE42D2203
:1047E00000238DF883200793FEF786BE28AA59463A
:1047F000504602F0E9FA00287EF4D7AE38782A99BC
:104800002BAA06448AE50C990A9828AA02F0DCFA39
:1048100000287EF4CAAE2A9C0DF1AC08FFF7C6BA98
:104820000C990A9828AA02F0CFFA00287EF4BDAEAF
:10483000229B2A9C0DF1AC08FFF7DCBA0799019185
:1048400026A9049123A9039122A9029103210B9B7C
:104850000A9800915A4600F0FBFA0378302B05467F
:1048600000F0F181229B079AB94613440F9FEC1880
:104870000B99584600220023FCF7D4FB10B12346C5
:10488000FFF7FDBB269BA342BFF4F9AB30215A1CB6
:1048900026921970269B9C42F9D8FFF7F0BB079B24
:1048A0009DF883200E9406930B9307900F9013901E
:1048B0001090FEF71FBE229A1092002A40F3E0816A
:1048C000079909F001030B4340F0B781109B0B934C
:1048D000662619F4806F40F041810B9B23EAE37355
:1048E000069378E730238DF8843058238DF885308F
:1048F000079B632B47F0020400F3BF8000230D9356
:104900003BADDDE9141247F481730F931346002B7E
:104910002746C0F285800B9326F0200306930023E0
:104920008B461D93612E00F04081412E7FF485ABB4
:1049300022AA0B99584602F0CBF900224FF07F5380
:10494000FCF708F902460B46CDE9102300220023AC
:10495000FCF768FB08B101232293AC4B0B93079B38
:10496000CDE912A6CDE91E78DDF82CA0DDE91067AF
:1049700003F1FF39AB46109506E00022002309F150
:10498000FF39FCF74FFBE8B9A14B0022304639460E
:10499000FCF7E0F80F460646FCF78CFB0446FCF7F4
:1049A0006FF80B46024639463046FBF71BFF1AF8F4
:1049B0000430B9F1FF3FD8464D460BF8013B06469F
:1049C0000F46DAD130463946924BDDF848A0139EA7
:1049D000CDF848800022A946DDF87C80109D1E9FFE
:1049E000CDE91001FCF746FB002855D1DDE91001A7
:1049F000884B0022FCF716FB08B1E1074CD44B466C
:104A0000002B06DB01335B4430220BF8012B5B45A6
:104A1000FBD1ABEB0503B94612930F9FFFF731BBF8
:104A200026F020030693DDE914349B4604F100438D
:104A30000B932D231D9375E700230793FEF796BC78
:104A4000129B169A9A18109B0B92002B40F3098127
:104A500067263EE70C990A9828AA02F0B5F90028C3
:104A60007EF4A3AD229D129B2A9C5D1B0DF1AC0828
:104A7000FFF7D8B9079BEC18FAE60A98591C01F021
:104A8000C1FA0546002800F026810D9039E7302351
:104A90008DF88430782329E7129B26930B9B1BF813
:104AA000012CD97B8A425B4609D1302003F8010CE6
:104AB000269B5A1E269213F8012C9142F6D0392AD1
:104AC0000BBF0B9A0132927AD2B203F8012CA0E705
:104AD00007990B9B0A984C1C26A9049123A90391C2
:104AE00022A9029102215A460194009100F0B0F9E6
:104AF0000546B9462C440F9FBAE645468846013321
:104B00003244072BCDE92932C8F80090C8F8046078
:104B10007FF7C2AC0C990A9828AA02F055F9002830
:104B20007EF443ADDDE929320DF1AC08B6E4079B14
:104B3000002B08BF0123079347F480730F93159B45
:104B4000002BC0F2B180DDF850B00D900B931D909A
:104B5000FFF77ABA00230D9365E7672619990B785A
:104B6000FF2B00F0B2800024109A204603E00130B1
:104B70000131FF2B08D0934206DAD21A4B78002B72
:104B8000F5D10B780134F4E71991109213900F943A
:104B90000F9A139B1C9913440B9A01FB03230B934D
:104BA00023EAE3730693FFF7D7BA22AA0B99584674
:104BB00002F08EF800224FF07F53FBF7CBFF024646
:104BC0000B46CDE9102300220023FCF72BFA08B195
:104BD00001232293104B0B93C1E6109B0B93EEE540
:104BE000002963D130228DF892200DF193023033E9
:104BF00002F8013B24ABD31A1A93FFF796BA06F1D9
:104C00000F02D2B20121FFF74FBA00BFC4900008D3
:104C1000000030400000E03FB0900008159B384D88
:104C2000002BB4BF2D229DF88320364BB8BF8DF8E2
:104C3000832027F08007FEF790BD169BD3181944F8
:104C40000B91662645E60B99584600220023FCF797
:104C5000E9F900287FF406AE079BC3F10103229314
:104C600001E6C3F101031A4422EAE2730B920693B0
:104C70006726B0E519F0010F3FF462AAFFF75CBAAE
:104C8000079A09F0010959EA020304D101230693A6
:104C900066260B939FE5169B01331A4422EAE273C2
:104CA0000B920693662696E50D90BCE60DF19202F6
:104CB0009DE70E9B9AF80160924653F8042B0E93E1
:104CC00042EAE2720792FEF74FBB00230F93139361
:104CD0005EE7079C0DE70C998B8943F04002134671
:104CE0008A81FEF76ABC02231A93FFF71EBA0A9A5A
:104CF0000C2313604FF0FF330893FEF765BC00BF31
:104D0000A8900008AC900008024B13B1024800F0D4
:104D100005B8704700000000155D0008002301463B
:104D20001A46184602F0CCB82DE9F04F03690C6919
:104D3000A34283B0C0F28680013C01F11405A300B8
:104D400000F11408009355F8243058F8242001335A
:104D50008A469A4208EB8401814605EB840701915B
:104D6000B2FBF3F638D30023AE4640469B465EF8CE
:104D7000041B02681FFA81FC06FB0C33090C4FEA86
:104D8000134C06FB01CC99B2ABEB01011FFA8CF37B
:104D900011FA82F1C3EB124202EB214289B241EADD
:104DA0000241774540F8041B4FEA1C434FEA224B6F
:104DB000DDD2009B58F8033073B9019B043B984542
:104DC00004D307E0984504F1FF3403D253F80429D3
:104DD000002AF7D0C9F810405146484601F050FE6D
:104DE00000282BDB01364046002355F8041BD0F881
:104DF00000C08AB29A1A0B0C12FA8CF2C3EB1C4355
:104E000003EB224392B242EA0342AF4240F8042B42
:104E10004FEA2343E9D258F8242008EB84036AB907
:104E2000043B984504D307E0984504F1FF3403D2CE
:104E300053F80429002AF7D0C9F81040304603B0CF
:104E4000BDE8F08F002003B0BDE8F08F0000000047
:104E50002DE9F04F016C99B090469946CDE904894F
:104E6000259D044641B1426C4A60012393408B600A
:104E700001F0AAFB00232364B9F1000AB4BF0123A7
:104E800000232B60764BBCBF2AF0004ACDF814A05B
:104E900033EA0A0300F0AA80DDE90423104619462C
:104EA00000220023CDE90A01FCF7BCF8074670B1E7
:104EB000249A01231360269B002B00F0E4826948AA
:104EC0001860431E0393039819B0BDE8F08F16AB2A
:104ED000019317AB00932046DDE90A2301F096FE0B
:104EE0005FEA1A56054640F09780DDE916763E44A3
:104EF00006F23240202840F3B583C0F140000AFAA0
:104F000000FA06F2124028FA00F04AEA0000FBF725
:104F1000A7FD0123013EA1F1F8710F93524B00222E
:104F2000FBF760FC48A3D3E90023FBF713FE48A37B
:104F3000D3E90023FBF758FC804630468946FBF74F
:104F40009FFD45A3D3E90023FBF704FE02460B4671
:104F500040464946FBF748FC80468946FCF7AAF8DC
:104F600000228346002340464946FCF765F80028A6
:104F700040F07C82BBF1160F00F26B823B4B03EBDF
:104F8000CB03D3E90023DDE90A01FCF755F800283B
:104F900072D00023BE1B0E93731E0BF1FF3B0693D2
:104FA00000F15E8200230993BBF1000F6BDA099BCD
:104FB000CDF81CB0A3EB0B030993CBF100030D93C9
:104FC000229B092B4FF0000B66D8052B40F348833A
:104FD000043B22930026229B023B032B00F26886AF
:104FE000DFE813F05C04590450043304249A42F2BD
:104FF0000F73CAF3130A13605AEA08031AD1269BE7
:10500000002B00F064861A4B03930833269A03980A
:10501000136019B0BDE8F08FDDE90A12C2F3130383
:10502000084643F07F510F97A6F2FF36169F41F4D2
:10503000401173E7269B002B40F0EA830D4B03934E
:1050400041E700BFAFF3008061436F63A787D23FA2
:10505000B3C8608B288AC63FFB799F501344D33F67
:105060000000F07FE19000080000F83F5092000837
:105070000891000804910008BE1B731E069300F1FE
:1050800085840E900990069B5B44CDE9063B002386
:105090000D93229B092B98D90023CDE922330126B9
:1050A0004FF0FF330C960893089B12930021616424
:1050B000204601F063FA0390002800F00186039B6C
:1050C0002364089B0E2B00F21381002E00F0108148
:1050D0000799002940F35C84AE4B01F00F0203EB0B
:1050E000C2034FEA2118C905D3E9006740F11484CF
:1050F000A94BDDE90A01D3E90823FBF755FECDE909
:10510000100108F00F084FF0030AB8F1000F13D098
:10511000DFF8849218F0010F09D030463946D9E9FA
:105120000023FBF717FD0AF1010A06460F465FEA66
:10513000680809F10809EDD1DDE9100132463B4666
:10514000FBF732FE804689460E9B43B1934B00220B
:1051500040464946FBF770FF002840F03085504636
:10516000FBF78EFC42464B46FBF7F4FC8C4B0022CF
:10517000FBF73AFBA1F15073CDE910011193089BA5
:10518000002B00F09780079B1493089B13930C9BB4
:10519000002B00F0A584139A7E4B8249039E03EBFB
:1051A000C20353E902230020FBF7FEFDDDE91023D3
:1051B000FBF718FBCDE9100149464046FBF77AFFA3
:1051C0000746FBF75DFC02460B4640464946FBF7A7
:1051D00009FB3037DDE9102306F8017B804689465C
:1051E000FBF72AFF002840F02985CDF854B00027AE
:1051F000DDE910AB1095139D13942AE00137AF42FF
:1052000080F22C85684B504659460022FBF7A2FCE1
:10521000654B002282468B4640464946FBF79AFC86
:1052200089468046FBF746FF0446FBF729FC024609
:105230000B4640464946FBF7D5FA303406F8014B99
:1052400052465B4680468946FBF7F6FE002840F052
:10525000F38442464B4651490020FBF7C3FA5246BD
:105260005B46FBF7E9FE0028C8D0DDE91343109D3B
:10527000039A079302E0964200F0C884B24616F8FB
:10528000013D392BF7D00133DBB23370079B01337B
:105290000793C8E15046FBF7F3FB42464B46FBF74A
:1052A00059FC3F4B0022FBF79FFAA1F15073CDE967
:1052B000100111933D4B404649460022FBF792FAFC
:1052C000DDE910894B46424606460F46FBF7D2FE03
:1052D0008146002840F0AA84DDE91001024601F170
:1052E000004330463946FBF7A7FE002840F04583CF
:1052F000179B002BC0F28C80079A0E2A00F388803F
:10530000244B03EBC203D3E900AB239B002B1BDA36
:10531000089B002B18DC40F02E83244B00225046C3
:105320005946FBF717FC02460B46DDE90A01FBF77D
:105330008DFEDDF820904E46002800F0C782239BAA
:10534000DDF80C80DF43C9E2DDE90A7852465B46AE
:1053500038464146FBF728FDFBF7ACFE8146099035
:10536000FBF78EFB52465B46FBF7F4FB039E0B46B6
:10537000024641463846FBF735FA09F1300306F894
:10538000013B089B012B00F05C83069401270495E8
:105390001C462AE050920008289200080000F03FC6
:1053A00000001C400000E03F0000244000001440CA
:1053B00052465B4640464946FBF7F6FCFBF77AFE51
:1053C0000546FBF75DFB52465B46FBF7C3FB013727
:1053D0000B46024649464046FBF704FA05F1300306
:1053E000A74206F8013B00F02983AC4B0022FBF7F3
:1053F000B1FB0022002380468946FBF713FE0028FC
:10540000D6D0049D069C079B01330793B2460AE160
:105410000C9A002A3DD0229A012A40F39C82089BD4
:1054200003F1FF380D9B4345C0F26D82A3EB0808E2
:10543000089B002BC0F23C83069A1A440692099AF4
:1054400017461A4409920121204601F065F90646E3
:1054500023E00123BE1B0E93731E06937FF5A2ADBE
:10546000C6F101030993002306939DE55846FBF717
:1054700007FB42464B46FBF7D5FD00287FF47AAD8B
:105480000BF1FF3B76E5864B0393039819B0BDE81B
:10549000F08FDDF83480099F0C9E002F0CDD0699FB
:1054A00000290B4608DD099AB942A8BF3B46D21A2B
:1054B000FF1ACB1A099206930D9BDBB10C9B002BB4
:1054C00000F05D82B8F1000F0FDD31464246204604
:1054D00001F0FEF92A4601460646204601F04AF947
:1054E00029460546204601F06FF80D9BB3EB0802F4
:1054F00040F0D8820121204601F00EF9BBF1000FE7
:10550000814600F3B480229B012B40F386814FF04B
:10551000000A0120BBF1000F40F0B580069A10444C
:1055200010F01F0000F09380C0F12003042B40F323
:10553000D283099BC0F11C00034402440993074431
:105540000692099B002B05DD29461A46204601F0EC
:105550001FFA0546069B002B05DD49461A462046E4
:1055600001F016FA81460E9B002B40F03681089B15
:10557000002B40F31D810C9B002B40F0A080079B6B
:1055800001330793DDF80C80DDF820A0012707E048
:10559000294600230A22204601F020F8013705465B
:1055A00049462846FFF7C0FB574500F1300308F88D
:1055B000013BEDDB089A002AC8BF9346039AD8BF87
:1055C0004FF0010B93440027294601222046049303
:1055D00001F0DEF94946054601F052FA002840F391
:1055E000A8811BF8013C039A0BF1FF3B04E05A45EC
:1055F00000F0AA811BF8013D392B0BF1010AF6D00E
:1056000001338BF800304946204600F0DDFF56B1EB
:105610002FB1B74203D03946204600F0D5FF3146BE
:10562000204600F0D1FF2946204600F0CDFF0023A0
:105630008AF80030249B079A1A60269B002B3FF4BF
:1056400042AC0398C3F800A019B0BDE8F08F1C204D
:10565000099B03440993069B03440744069370E7A0
:105660000126B8E4C0F1200008FA00F04FE401463A
:105670005A46204601F02CF9229B012B814640F32B
:10568000B3814FF0000AD9F8103009EB8303186991
:1056900000F0F4FFC0F1200040E700BF000024400C
:1056A000E0900008314600230A22204600F096FFD1
:1056B000129B002B064640F3E782CDE90783002FBB
:1056C00000F31A81BAF1000F40F0D581B046049B77
:1056D000039F089903F001027B1E1944229B0C9240
:1056E000134309910A9349462846FFF71DFB3146AB
:1056F0008346284601F0C4F9424649468246204680
:1057000001F0DEF9C26801460BF13003002A42D1F4
:1057100006902846089301F0B3F9069904902046B4
:1057200000F052FF049A089B1AB90A99002900F068
:105730009B82BAF1000FC0F2638122994AEA010A02
:105740000C9951EA0A0100F05B81002A00F3B48150
:10575000099A3B7007F1010A9742D34600F0B281E3
:10576000294600230A22204600F038FF4645054618
:1057700031464FF000034FF00A02204612D000F0ED
:105780002DFF4146064600230A22204600F026FF50
:1057900057468046A7E72046049300F015FF049B78
:1057A0000122C6E700F01AFF5746064680469AE7F0
:1057B000229B022B79DC0C9B002B80D1079B494656
:1057C000013328460793FFF7AFFADDF80CB000F17C
:1057D00030030BF8013B0027F6E64946284601F066
:1057E0004FF90028BFF6C3AE294600230A222046FF
:1057F00000F0F4FE079B03F1FF380C9B0546002BDD
:105800007FF450AF129B002B40F335820893B9E62A
:10581000AF4B03930333FFF7F9BBDDE90412002913
:105820007FF475AEC2F31303002B7FF470AEA94B67
:105830001340002B00F0FE81099B01330993069B66
:10584000013306934FF0010A63E601230C93239B77
:10585000079A134412930133012B1F460893B8BFD4
:1058600001270021172F61647FF722AC0122042356
:105870005B0003F11400B842114602F10102F7D9AE
:10588000616415E401230C93239B002B4CDD1293E0
:1058900008931F46E5E700230C93D8E700230C93F9
:1058A000F2E7129BCDF81C800893089B002B7FF435
:1058B00046AD49460522204600F090FE014681464D
:1058C000284601F0DDF800287FF739AD0398079FDF
:1058D0003123804600F8013B0137039049462046BA
:1058E00000F072FE7B1CDDF80CA00793CDF80C8055
:1058F000002E7FF494AE96E631463A46204601F0FB
:1059000047F80646DEE60D9BCDF83480A8EB03038E
:105910009B444FF000088BE5DDE90A234FF0020AB3
:10592000CDE91023FFF7F1BB012323930893FFF781
:10593000BBBB03D1049BDB073FF553AEDA461BF834
:10594000013D302BFAD05EE6079B039A01330793A3
:105950003123137057E60F9A002A00F0268103F2D4
:105960003343069ADDF834801A440692099A1746A2
:105970001A44099267E54FF000094E46DFE42946D4
:105980000D9A204600F0A4FF0546B3E50E9067E5AA
:1059900000F00F81079A504B564206F00F0203EBBE
:1059A000C203D3E90023DDE90A01FBF7D3F836117E
:1059B0008046894600F07181484F00234FF0020A6B
:1059C000F20706D5D7E90023FBF7C4F80AF1010A6C
:1059D0000123761007F10807F2D1002B3FF4B4AB96
:1059E00080468946FFF7B0BB049B002B7FF449AE8D
:1059F000DDE90412C2F31303002B3FF418AF40E6B5
:105A0000002A12DD294601222046049300F0C0FF3F
:105A10004946054601F034F80028049B40F31881FC
:105A2000392B00F0F9800BF13103BA460AF8013B3B
:105A3000079B0133374607934646E4E50995069CE4
:105A4000049D02460B46FAF7CFFE52465B4680465F
:105A50008946FBF70FFB60B952465B464046494614
:105A6000FBF7E0FA00283FF4CEAC099BD9077FF59D
:105A7000CAAC039A02E47168204600F07FFD074635
:105A8000002800F00E81336902339A0006F10C0100
:105A90000C30FAF78DFD39460122204600F078FFE0
:105AA000804614E62946204600F012FF054621E50F
:105AB000DDE908239F1AC6E4392B00F0AD80BA4611
:105AC0000133B3E7079A01323746079246467BE532
:105AD000049100080000F07F50920008289200080E
:105AE000DDF84CA0844901EBCA01DDE9102351E93E
:105AF0000201FBF72FF8CDE9100149464046FBF7BC
:105B0000D9FA0646FAF7BCFF0B460246494640461C
